:060000000C9482000C9438
:1000060000000C9400000C9400000C9400000C946A
:1000160000000C9400000C9400000C9400000C945A
:1000260000000C9400000C9400000C9400000C944A
:1000360000000C9400000C9400000C9400000C943A
:1000460000000C9400000C9400000C940000102793
:10005600E80364000A00010000100001100001001E
:10006600726573756C742D3E25730D0020006C65EA
:100076006400616C63640061646400737562006DA2
:10008600756C00646976006D6F640057524F4E4779
:1000960020434D44210D00494E56414C49442043CE
:1000A6004D44210D003A002D004E4F205041524143
:1000B6004D53210D0025730001002D4E414E004980
:1000C6004E46000080C00400600274000500640211
:1000D6007800040069027D0004006D0281000400BE
:1000E60071028500040075028900040079028D0002
:1000F60001009102BE0002009502CA000000F894B9
:10010600EE27ECBBF1E0F5BFE5BF8DE0A2E0BB2733
:10011600ED938A95E9F780E098E0A0E6ED930197E4
:10012600E9F7ECECF0E085919591009761F0A591E7
:10013600B59105901590BF01F00105900D920197BC
:10014600E1F7FB01F0CFEFE5EDBFE8E0EEBFC0E67B
:10015600D2E00C94C8021A930A93EBB11E2FE078F2
:10016600E1F30CB1E12FEC7111F4E02F01C0F5CFF2
:10017600099119910895AA935D9BFECFE881ECB988
:100186000C94CD04BA93AA930E946F04E6E6F0E0BD
:10019600FA93EA93EA81FB81662777270E94DE0BB2
:1001A60084E00E94D5062696A881B9810E94900413
:1001B6000C946D04BA93AA93A881B9810E94140382
:1001C6000C946D04BA93AA93EF97A5970E94F50B2A
:1001D60020E030E040E050E00E94D508119781F41D
:1001E60040E050E04A30E0E05E074CF40E94DC0854
:1001F600E1E0F0E0ED93FC934F5F5F4FF3CF0FC06C
:1002060040E050E04A30E0E05E074CF40E94DC0833
:10021600E0E0F0E0ED93FC934F5F5F4FF3CFFE011C
:100226003696FA93EA93DE01A259BF4F0D90BC9120
:10023600A02D0E94F004FE0136960E94E408002ECE
:10024600012AB1F0F901ADE7B2E0EE0FFF1FEA0FA8
:10025600FB1FFF93EF93D801ADDFAF91BF91ED93F5
:10026600FC93E0E0F0E00E94E4082F5F3F4FE7CF09
:10027600EDE7F2E00E94FC0BEF96AF960895BA9375
:10028600AA930E94F70BAC81BD81EC91F0E0F09748
:100296008F01EC81FD81E181F0E0F0979F01E1E0C3
:1002A600F0E0E217F30739F418B2E02FA1E00E945C
:1002B6007E0BE129E8BB022E032A41F418B2E02F97
:1002C600A1E00E947E0BE095E121E8BB0E94FE0BB7
:1002D6000C949105BA93AA930E946F04A881B981E0
:1002E6000E9490040C946D040E94EC08A0E00E9409
:1002F600F60820E030E040E050E04230E0E05E0703
:100306003CF40E94FB082E0F3F1F4F5F5F4FF5CF57
:100316002FC00E94EC08A1E00E94F60821E030E020
:1003260040E050E04230E0E05E074CF40E94FB08FB
:10033600D9010E94930B9F014F5F5F4FF3CF18C007
:100346000E94EC08A0E00E94F608D8010E94C70BA4
:100356009F0140E050E041E050E04230E0E05E07BF
:100366003CF40E94FB082E1B3F0B4F5F5F4FF5CFFF
:100376003A932A93DE0118960E944B03DE011696E5
:1003860001DF0E94FC0B62960895BA93AA932E97FA
:100396000E94F70BEA89FB89FA93EA93A1E00E948F
:1003A600F608D8010E940409EC83FD836E837F83DF
:1003B60021E030E02230E0E03E07ACF4F901D8015C
:1003C600EE0FFF1FAE0FBF1F0E940409AC81BD8157
:1003D6008E819F810E94090BEC83FD836E837F8350
:1003E6002F5F3F4FE7CFEC81FD816E817F810E94B9
:1003F600DE0BE6E0EA93DE011D960E947903DE013C
:100406001896C0DE0E94FE0B0C94D306BA93AA93EC
:100416002A970E94F70BEE85FF85FA93EA93A1E0EF
:100426000E94F608D8010D901C90D80112960E94E1
:10043600C70BD0010E94AB0B9F010E940B090E94C3
:10044600DE0BE6E0EA93DE0119960E947903DE01EF
:10045600149698DE0E94FE0B60960895BA93AA93AE
:100466000E941009A0E6B2E00E94DC04E03021F40C
:10047600A881B98104DF4EC00E941009A4E6B2E04B
:100486000E94DC04E03021F4A881B98123DF42C058
:100496000E941009A9E6B2E00E94DC04E03021F4D3
:1004A600A881B98121DF36C00E941009ADE6B2E00D
:1004B6000E94DC04E03021F4A881B98141DF2AC022
:1004C6000E941009A1E7B2E00E94DC04E03021F4AA
:1004D600A881B9811EDF1EC00E941009A5E7B2E0FF
:1004E6000E94DC04E03021F4A881B9814EDF12C0FD
:1004F6000E941009A9E7B2E00E94DC04E03021F472
:10050600A881B98183DF06C0E1E9F0E00E94150900
:100516000C94D3080C94D308BA93AA93EF97A59793
:100526000E94F70B0E941C090E94D5080E94F00445
:100536000E941C09AAE30E94CF04309729F4EDE932
:10054600F0E00E9415091CC00E941C09ABEAB0E04D
:100556000E944F059F01E0E0F0E0FA93EA93ADEACE
:10056600B0E00E944F058F01002E012A29F4EFEA20
:10057600F0E00E94150904C03A932A93D8016EDF71
:100586000E94FE0BEF96AB960895E297E0E0EABB79
:10059600EBBBEFE0E7BBE0E0E8BBE4BBE5BBE1BB00
:1005A600E2BBE3BFE2BFECBFEFBDEEBDEDBDECBD10
:1005B600E7BDE6BDEBBDEABDE9BDE8BDE2BDE5BD13
:1005C600E4BDE3BDE9BFE5BFE4BFEBB9E8E1EAB9E5
:1005D600E6E8E0BDE0E0E0BDE3E3E9B9E0E8E8B97C
:1005E600E0E0E0BFE6B9EDB9E6BFA0E10E94A104F4
:1005F60078940E946F04EBEBF0E0FA93EA93FE0125
:100606003296662777270E94DE0B84E00E944D080B
:100616002696DE0181DFE0E7F0E00E941509EBCFC8
:10062600FFCFBA93AA93B981A881EC918A2FAE2FF6
:100636000E947308A82FEE2311F01196F6CFE894C6
:10064600EC91ED3211F4689402C0EB3209F4119684
:1006560066277727EC918A2FAE2F0E946A08A82F6B
:10066600EE2379F0FB01660F771F660F771F6E0F7B
:100676007F1F660F771FED91FF27E0536E0F7F1FD9
:10068600E9CFFB011EF4E095F09531962296089588
:10069600BA93AA93A991B991E991F99130962AF45E
:1006A600E095F09531966DE26D93E89480E197E2DE
:1006B6000DD088EE93E00AD084E6992707D08AE029
:1006C60005D06E2F10D066276C9308956627E8171D
:1006D600F90720F06395E81BF90BC9F7662311F4B7
:1006E60016F008956894605D6D930895BA93AA9381
:1006F6002497E0E0E883E983EA83EFE3EB831A9348
:100706000A93EB85FC85EF3FAFEFFA0739F40E94B9
:100716002109A0ECB0E00E94FD04ADC0EF3FAFE7B9
:10072600FA0739F40E942109A1ECB0E00E94FD0409
:10073600A2C0AC85AA2362F4E985FA856B857C851F
:100746000E94C5090E9426090E942B09EDE2EC933E
:10075600A885A73010F0E6E0E8871885E12F11504C
:10076600E03039F00E9432090E9437090E943E09A2
:10077600F5CF0E9443090E946B0A0E94260910E0E9
:10078600E0E0F0E060E87FE30E943E090E94430952
:100796000E944E0B88F00E9432090E944C090E946A
:1007A6003E091F5F173238F00E942109A5ECB0E020
:1007B6000E94FD0460C0EACF103029F40E942B0984
:1007C600E0E3EC932DC0E12F1150E03049F10E9497
:1007D60032090E943709A0E0B0E080E09FE30E9462
:1007E6006B0ADF01CB010E94BE080E943E090E94EF
:1007F60043090E94090B0E94F8090E2F0E942B093B
:10080600E02FE05DEC93E02FF0E00E9432090E94B9
:100816000B090E94BB0A0E9453090E945809D3CFB4
:10082600E885E03021F10E942B09EEE2EC93E885A1
:10083600E150E887EF5FD9F00E9453090E944C0906
:100846000E942609E985FA856B857C850E94F80950
:100856000E2F0E942B09E02FE05DEC93E02FF0E0D5
:100866000E9453090E940B090E945809E0CFAE81ED
:10087600BF81E0E0EC93198108812D960895AA9333
:10088600EBB3EF70AE2FE881E07FEA2BEBBB8DE098
:100896008A95F1F7DA9A8DE08A95F1F7DA988DE084
:1008A6008A95F1F777C0AA93A881E9DFE881E295F6
:1008B600E883A881E4DF85E88A95F1F76BC0AA93FF
:1008C600E881F0E0EB56FD4FE081A981AE0FEBDF4A
:1008D6005980488022960895A2E00E945D09ACE006
:1008E600E2DFA1E00E945D09E0E04E2E5E2E089553
:1008F600AA93A881AA3011F0571448F0E0E0EA93D1
:100906004394A42DDCDFA881AA3009F443C0539494
:10091600D89AA881C8DFD8983DC0BA93AA931A93EB
:10092600A981BA81ED91A983BA831E2FE03019F00F
:10093600A12FDEDFF5CF18810C949F05AA93EAB3A9
:10094600E06FEABBD29AD09AD19ADA98D898D99819
:100956007880E881E058E0939702E881E054E093DC
:100966009802A4E1B0E00E94BB090E9463090E94BC
:1009760063090E946309A0E282DF88EC90E0019798
:10098600F1F7A8E290DFA4E08EDFA5E88CDFA6E011
:100996008ADFA2DF21960895AA93A991E991F99198
:1009A600B081AB1729F03196BB23D1F7EE27FF278D
:1009B6000895BA93AA93E991F991A991B9916D9184
:1009C6007191671721F46623D1F7EE270895671B07
:1009D600E1F3E1E008F4E2500895BA93AA93E991AD
:1009E600F991A991B991CD0161916D936623E1F7D2
:1009F600FC010895BA93AA93E991F991A991B99145
:100A0600CD0105900D920020E1F7FC010895BA93FF
:100A1600AA93A991B991EE27FF276D91662311F04C
:100A26003196FBCF0895BA93AA93AA27BB27E991DB
:100A3600F9910590002011F01196FBCFFD01089564
:100A4600BA93AA93BB81AA816C91662361F0F9815E
:100A5600E881C895002029F031966015D1F7FD018F
:100A660004C01196F1CFEE27FF270C94D308BA9352
:100A7600AA93BB81AA81882799276D91662349F09D
:100A8600F981E8810590002021F06015D9F70196DB
:100A9600F4CFFC010C94D308BA93AA931A930A9341
:100AA600EC81FD81309779F4E0919902F0919A02F8
:100AB600309719F4E0E0F0E02FC0E0919902F09150
:100AC6009A02EC83FD830E946B090E943A05AC8171
:100AD600BD81EA0FFB1FEC83FD83AC81BD81EC91E8
:100AE600E03041F4E0E0E0939902E0939A02E0E01E
:100AF600F0E012C00E946B090E9423058F01309717
:100B060029F0D8010F5F1F4FE0E0EC9300939902A4
:100B160010939A02EC81FD81198108812696089529
:100B2600BA93AA93AA810E94BE00A881B981ED91C9
:100B3600FD913196FE93EE9323960895BA93AA9368
:100B460026970E94F50B10E0AC85BD85E0E0F0E04D
:100B5600ED93FC93EA89FB893196EA8BFB8B3197FF
:100B6600E4912E2FE03009F415C1E12FE03039F47D
:100B7600253211F411E002C00E9472090AC1E13067
:100B8600A9F4253219F40E94720902C112E040E06C
:100B960000E02D3211F401E0FCC02B3211F44BE2DF
:100BA600F8C0203211F440E2F4C002C0E23039F459
:100BB60050E013E0203311F40068EBC003C0E330CB
:100BC60009F0E7C0203310F02A3308F007C0AAE086
:100BD6005A9F502DE22FE0535E0FDBC0E22FE33623
:100BE60049F40E947909E889F989A481AA930E94A7
:100BF6007F09CEC0E33741F40E9479090E94850936
:100C06000E940A051E2F0AC0E03761F40E94790986
:100C16000E9485090E9416051E2F086002600F7744
:100C260030E034C0E43611F0E93611F4046002C055
:100C3600E53731F4E4E5F0E0EE83FF8315E00CC020
:100C4600E83511F4086003C0E83709F0A1C0EEE505
:100C5600F0E0EE83FF8314E002FF14C00E947909DE
:100C66000E948F09AB85AA233AF4EA85FB850E9488
:100C7600720BEA87FB874DE2403011F01F5F01C01F
:100C86000B7F04C00E9479090E948F0900FD11C0E4
:100C9600151778F407FF08C002FF04C00B7F242F46
:100CA600115001C020E301C020E20E947209515098
:100CB600EFCF312F01FF17C03030A1F003FF06C080
:100CC600EE81FF812591EE83FF8305C0AE81BF8152
:100CD6002D91AE83BF830E947209503009F05150A6
:100CE6003150EACF4BC020E3EE81FF810E94CB0B4F
:100CF600E887F987EE81FF813296EE83FF83E885E8
:100D0600F985AA85BB85AE17BF0750F02F5FA8856A
:100D1600B985EA85FB85EA1BFB0BEA87FB87EFCFE4
:100D26002A3328F003FF02C0295F01C0295D04FDB4
:100D36001AC0213320F4A885B985119709F409C092
:100D4600531710F000FF01C013C020E207FF0BC0CD
:100D560020E3006102FF07C00B7F4A930E947F09D0
:100D6600503009F051500E947209503009F051502C
:100D76003150A885B985129708F0B5CF00FF08C095
:100D8600503031F05150E0E2EA930E947F09F8CFEB
:100D960010E0E0CEAC85BD850E94C70B0E94FC0B1F
:100DA60064960895FF92F82E26971A930A93DE0109
:100DB60014960E946E0B8D01E0E0EC83ED83EE83CA
:100DC600EF83DE0118960E949709E3E9F5E0FA93AE
:100DD600EA93DE011896B2DE198108812896FF9003
:100DE6000895BA93AA931A93A981BA81E0E0EC9385
:100DF600AB81BC81EC911E2FE03019F0E0E0EC9362
:100E060003C00E94AE001E2FE12F1881259608957B
:100E1600FF92BA93AA9324970E94F50BE0E0F0E0C4
:100E2600E887F9874E2FE889F9893196E88BF98B9F
:100E36003197E4913E2FE03009F425C10E94A009C4
:100E4600C1F0EDB7FEB7FA93EA934F930E94A50956
:100E56004F913E2FE03019F00E94A00909F407C017
:100E66000E94AB091CF4EFEFFFEF0FC1EACF432F4F
:100E760009C1353209F0EEC050E0E889F9893591AB
:100E8600E88BF98B303310F03A3308F007C0AAE04C
:100E96005A9F502DE32FE0535E0FEFCF303009F409
:100EA600F2C0EDB7FEB7FA93EA934F930E94A509F5
:100EB6004F912E2FAE2F0E947308E03039F00E941A
:100EC600AB091CF4EFEFFFEFE0C0EBCF203009F4E5
:100ED600D1C0422F503009F45FEFE32FE33699F487
:100EE6000E94B009EDB7FEB7FA93EA934F930E94BA
:100EF600A5094F91D801EC930E94AB091CF4EFEFC2
:100F0600FFEFC3C0A1C0E33741F50E94B009E52F4A
:100F16005150E030F1F0EDB7FEB7FA93EA934F93F4
:100F26000E94A5094F913E2FE03019F00E94A009BA
:100F360039F00E94AB091CF4EFEFFFEFA6C009C021
:100F46001F930F930F5F1F4FE32FAF91BF91EC934A
:100F5600DECFD801E0E0EC9377C06894F1F8E8942E
:100F6600F2F8E32FE43611F0E93619F4E894F1F8D3
:100F760002C0E53711F42AE008C0E83711F420E191
:100F860004C0E53209F466C07EC0E0E0EE83EF837C
:100F96006894F0F8E52F5150E03009F446C0EDB7FB
:100FA600FEB7FA93EA934F930E94A5094F913E2FFD
:100FB600E13238F40E94AB091CF4EFEFFFEF65C095
:100FC60017C0F1FC08C06894F1F83D3211F4F2F84C
:100FD600E1CF3B32F9F2203131F4A32F0E947E0893
:100FE600E03031F009C0A32F0E946A08E03021F4F6
:100FF600F0FC49C0432F19C0313610F0375505C0F3
:10100600313410F0375301C03053E22FAE81BF8127
:10101600F0E00E948B0BDF01E32FF0E0EA0FFB1FED
:10102600EE83FF83E894F0F8B5CF0E94B009F2FE94
:1010360006C0EE81FF810E94720BEE83FF83EE8174
:10104600FF81D801ED93FC93E885F9853196E88711
:10105600F98718C0EDB7FEB7FA93EA934F930E944B
:10106600A5094F91E31771F00E94AB091CF4EFEF4D
:10107600FFEF0BC0E885F985309719F4EFEFFFEF26
:1010860004C001C0D0CEE885F9850E94FC0B6296AB
:10109600FF900895FF92F82E23971A930A93DE0184
:1010A60011960E946E0B8D01E0E0EB83EC83DE016E
:1010B60015960E949709E4EFF6E0FA93EA93DE01AB
:1010C6001896A6DE198108812596FF900895AA93A1
:1010D600E1E0F991F03310F0FA3308F0EE270895C5
:1010E600AA93E1E0F991F03229F0F93010F0FE30E0
:1010F60008F0EE270895AA93E1E0F991F05340F045
:10110600FA3038F0FF75F750FA3010F0F03108F089
:10111600EE2708950E94E30B7B816A81F981E881BD
:1011260077FB770F67FD7160972F9E5781F078F0F8
:10113600983190F4AA27BB27882708948795B795F6
:10114600A7959A95D1F7EA23FB23682305C0E8946F
:101156007727EE27FF2766276F77769508F460686E
:1011660077F9A991B99189919991EA17FB076807CF
:10117600790797FB08950E94E30B0E94D40B0E9407
:101186008D080E94D90B19F40E94CF0B09C0E6F70F
:101196000E94CF0BA0E0B0E080E89FE30E94640AC3
:1011A60024960895DE01A659BF4F0D90BC91A02D3F
:1011B6000895FA01ADE7B2E0EE0FFF1FAE0FBF1FB5
:1011C6000895FA93EA93A2E7B0E00E944F058F01D3
:1011D6000895BA93AA932A970E94F50BE889F9898C
:1011E600FA93EA930895B0E00E94E5008F0108950E
:1011F600FA01D801EE0FFF1FAE0FBF1F0E94C70BEB
:1012060008950E94C70B0E94860B0E94310A08951A
:101216000E94860B0E94310A0895EA81FB81FA93A7
:10122600EA930895FA93EA9380E00E94D5062296FF
:101236000895FE013496FA93EA930895EE81FF81AC
:10124600FA93EA930895E987FA876B877C8708956E
:10125600AE81BF811196AE83BF8311970895AA818F
:10126600BB818C819D810895EDECFCEC6CEC7DE3FB
:101276000E94BB0A0895EA83FB836C837D830895ED
:10128600EA81FB816C817D81A985BA858B859C85E8
:101296000895E0E0F0E060E271E40E94BB0A089580
:1012A600A985BA858B859C8508950E94E80B0E94C6
:1012B600640AC9CF0E945604A3E0B0E00C94BB09AF
:1012C600A0E30E94420488EC90E00197F1F70895AC
:1012D600EC81FD81FA93EA93AC81BD8108952A934E
:1012E600AD85BE85EF85F88909950895E889F98960
:1012F6003497E88BF98B0895AD85BE85EF85F8891F
:1013060009950895A889B98914960E94C70BEE839A
:10131600FF83AE81BF810895A889B98914960E947A
:10132600C70BEA87FB8708950E946E0B0E94C70BC6
:10133600FA93EA931A930A930895A32F0E947308C7
:10134600E0300895AC85BD85EE85FF850995089545
:10135600AA85BB85AC91A0300895EE85FF853497AC
:10136600EE87FF87AE85BF8514960D911C91089573
:10137600109639F0A89580ED97E00197F1F711974F
:10138600C9F7089530976040704009F07058089585
:10139600552342F4503811F4E0FF04C03196691F1A
:1013A600791F6BF050E8572711F45F93CFC05F3F6A
:1013B60031F0660F000C57956795752F08955F936A
:1013C60000200AF0CFC0C8C050E8192E1522880F99
:1013D600991F9527550F879550E8072E0522660F0A
:1013E600771F7527550F67950895689401C0E8948F
:1013F6005F93F2DF703818F07F3F08F4A7C056E11C
:10140600571BAAF4519558300EF4593030F0EFEFCF
:10141600FFEF6FEF7FE777F91AC077275523B9F00B
:10142600EE0FFF1F661F771F5A95D1F710C077275B
:10143600583028F0EF2FF62F672F5850F9CF552345
:1014460031F076956795F795E7955A95D1F700208F
:101456000AF449D15F910895689401C0E8943097E1
:1014660060407040B1F0002426F0772312F4009417
:101476003AD1172E7EE1112032F07A95EE0FFF1F3A
:10148600661F111CF9CFEF2FF62F612D5F938ADFB0
:101496005F9108954F93AF01FD01DA01AB01BC01E5
:1014A600CA01402D012C142E4F910895EA0FFB1FFF
:1014B600681F0895E095F0956095EF5FFF4F6F4FB9
:1014C60008955F9381DF903871F150E8152604C0C6
:1014D6005F937ADF903839F1703821F1572F591B15
:1014E6002BF112F4D7DFFACF583118F0AA27BB2711
:1014F6008827583028F0AB2FB82F88275850F9CFB7
:10150600552329F08695B795A7955A95D9F7502D65
:10151600512572F0CBDF38F46795F795E79573950B
:1015260013F420C0B7DF3EDF5F910895D8F7FBCFF5
:10153600EA1BFB0B680B51F010F40094BBDF66232B
:1015460092F3EE0FFF1F661F7A95CBF7EE27FF2764
:10155600662777275F910895EFEFFFEF6FE77FEF3D
:101566005F910895EFEFFFEF6FE77FE75F910895D3
:101576005F932ADF703851F3903841F301240894C1
:10158600791F23F41CF300203AF3ECCF0F921F933C
:101596002F933F934F93112722279927689FA001E6
:1015A6008F9F302D410D591F6B9F300D411D591FC7
:1015B6008E9F27D0BF9F25D06A9F23D0BE9F1DD068
:1015C600AF9F1BD0AE9F110D291F391F491F591FF1
:1015D600E32FF42F652F522F4F913F912F911F919B
:1015E6000F9066232AF0550FEE1FFF1F661F02C0DD
:1015F60073954BF2CDDE5F910895100D211D391FB5
:1016060002C0200D311D491F591F08955F93DCDE6E
:10161600703821F411200AF49FCFA4CF903809F432
:1016260095CF01240894970B1BF4D4F30020F3CF35
:10163600792F1F932F933F934F931124112722271E
:1016460033274427552790E2AE17BF078607410781
:1016560030F0AE1BBF0B860B410B089401C088947B
:10166600551F221F331F111CAA1FBB1F881F441F93
:101676009A9551F7F901612D4F913F912F911F9145
:10168600662332F0550FEE1FFF1F661F7A9543F251
:101696007FDE5F91089599239AF0772342F097179A
:1016A60048F029F4AE17BF07860720F031F098946A
:1016B60088940895989408940895189488940895A1
:1016C6007723C2F7971798F3A9F7EA17FB07680776
:1016D60088F399F3ECCF0024AF0DB01D0895F19572
:1016E600E195F0400895F09560957095E195FF4F6E
:1016F6006F4F7F4F0895EE230E2EEA2F19F0EE0F4F
:101706000A94E9F708956F2F660F660B762F0895F2
:10171600FA9FF02DEB9FF00DEA9FE02DF10D089555
:1017260025D0F6DF0EF4DBDF08950024112490E1C6
:10173600AA0FBB1F001C111C0E1A1F0A18F40E0E4E
:101746001F1E01C0A1609A9599F7FD01D001089569
:10175600E894B7FF04C0A095B09511966894F7FD7C
:10176600BEDFE3DFFD010EF4BADF0895E894F7FF6C
:1017760002C0B5DF6894B7FF06C0A095B095119674
:1017860000F8039400FA0895ED91FC9111970895DD
:101796000590F491E02D0895E881F9816A817B81B5
:1017A6000895A881B9818A819B810895E883F98388
:1017B6006A837B8308957A936A93FA93EA930895EA
:1017C6009A938A93BA93AA930895182E862F612D19
:1017D600192E972F712D1B2EBF2FF12D1A2EAE2FDE
:1017E600E12D08955A934A933A932A931A930A93AA
:1017F60008955D814C813B812A8119810881089574
:00000001FF
